{
  "contractName": "InterChainV2",
  "abi": [
    {
      "constant": true,
      "inputs": [
        {
          "name": "",
          "type": "uint256"
        }
      ],
      "name": "authorities",
      "outputs": [
        {
          "name": "",
          "type": "address"
        }
      ],
      "payable": false,
      "stateMutability": "view",
      "type": "function"
    },
    {
      "constant": true,
      "inputs": [],
      "name": "required",
      "outputs": [
        {
          "name": "",
          "type": "uint256"
        }
      ],
      "payable": false,
      "stateMutability": "view",
      "type": "function"
    },
    {
      "inputs": [
        {
          "name": "_authorities",
          "type": "address[]"
        },
        {
          "name": "_required",
          "type": "uint256"
        }
      ],
      "payable": false,
      "stateMutability": "nonpayable",
      "type": "constructor"
    },
    {
      "anonymous": false,
      "inputs": [
        {
          "indexed": false,
          "name": "txHash",
          "type": "uint256"
        },
        {
          "indexed": false,
          "name": "_to",
          "type": "address"
        },
        {
          "indexed": false,
          "name": "_amount",
          "type": "uint256"
        }
      ],
      "name": "newTransactionSubmitted",
      "type": "event"
    },
    {
      "anonymous": false,
      "inputs": [
        {
          "indexed": false,
          "name": "recovered",
          "type": "address"
        }
      ],
      "name": "addressRecovered",
      "type": "event"
    },
    {
      "anonymous": false,
      "inputs": [
        {
          "indexed": false,
          "name": "message",
          "type": "string"
        },
        {
          "indexed": false,
          "name": "hashed",
          "type": "bytes32"
        },
        {
          "indexed": false,
          "name": "msgHash",
          "type": "bytes32"
        }
      ],
      "name": "hashedMessage",
      "type": "event"
    },
    {
      "constant": false,
      "inputs": [
        {
          "name": "msgHash",
          "type": "bytes32"
        },
        {
          "name": "message",
          "type": "string"
        },
        {
          "name": "v",
          "type": "uint8[]"
        },
        {
          "name": "r",
          "type": "bytes32[]"
        },
        {
          "name": "s",
          "type": "bytes32[]"
        }
      ],
      "name": "submitTransaction",
      "outputs": [],
      "payable": false,
      "stateMutability": "nonpayable",
      "type": "function"
    },
    {
      "constant": false,
      "inputs": [
        {
          "name": "msgHash",
          "type": "bytes32"
        },
        {
          "name": "v",
          "type": "uint8"
        },
        {
          "name": "r",
          "type": "bytes32"
        },
        {
          "name": "s",
          "type": "bytes32"
        }
      ],
      "name": "recoverAddr",
      "outputs": [
        {
          "name": "",
          "type": "address"
        }
      ],
      "payable": false,
      "stateMutability": "nonpayable",
      "type": "function"
    }
  ],
  "bytecode": "0x6060604052341561000f57600080fd5b60405161075438038061075483398101604052808051820191906020018051906020019091905050816000908051906020019061004d92919061005c565b50806001819055505050610129565b8280548282559060005260206000209081019282156100d5579160200282015b828111156100d45782518260006101000a81548173ffffffffffffffffffffffffffffffffffffffff021916908373ffffffffffffffffffffffffffffffffffffffff1602179055509160200191906001019061007c565b5b5090506100e291906100e6565b5090565b61012691905b8082111561012257600081816101000a81549073ffffffffffffffffffffffffffffffffffffffff0219169055506001016100ec565b5090565b90565b61061c806101386000396000f300606060405260043610610062576000357c0100000000000000000000000000000000000000000000000000000000900463ffffffff168063494503d414610067578063ba845ea4146100ca578063dc8452cd146101f4578063e5df669f1461021d575b600080fd5b341561007257600080fd5b61008860048080359060200190919050506102aa565b604051808273ffffffffffffffffffffffffffffffffffffffff1673ffffffffffffffffffffffffffffffffffffffff16815260200191505060405180910390f35b34156100d557600080fd5b6101f260048080356000191690602001909190803590602001908201803590602001908080601f016020809104026020016040519081016040528093929190818152602001838380828437820191505050505050919080359060200190820180359060200190808060200260200160405190810160405280939291908181526020018383602002808284378201915050505050509190803590602001908201803590602001908080602002602001604051908101604052809392919081815260200183836020028082843782019150505050505091908035906020019082018035906020019080806020026020016040519081016040528093929190818152602001838360200280828437820191505050505050919050506102e9565b005b34156101ff57600080fd5b610207610564565b6040518082815260200191505060405180910390f35b341561022857600080fd5b61026860048080356000191690602001909190803560ff16906020019091908035600019169060200190919080356000191690602001909190505061056a565b604051808273ffffffffffffffffffffffffffffffffffffffff1673ffffffffffffffffffffffffffffffffffffffff16815260200191505060405180910390f35b6000818154811015156102b957fe5b90600052602060002090016000915054906101000a900473ffffffffffffffffffffffffffffffffffffffff1681565b6000806000866040518082805190602001908083835b60208310151561032457805182526020820191506020810190506020830392506102ff565b6001836020036101000a038019825116818451168082178552505050505050905001915050604051809103902092507fcbdf62f7953ea848da2376da0014fc896b87f13a81fa2eae46875bd35a87ece087848a604051808060200184600019166000191681526020018360001916600019168152602001828103825285818151815260200191508051906020019080838360005b838110156103d35780820151818401526020810190506103b8565b50505050905090810190601f1680156104005780820380516001836020036101000a031916815260200191505b5094505050505060405180910390a1600091505b85518260ff16101561055a57600188878460ff1681518110151561043457fe5b90602001906020020151878560ff1681518110151561044f57fe5b90602001906020020151878660ff1681518110151561046a57fe5b90602001906020020151604051600081526020016040526040518085600019166000191681526020018460ff1660ff1681526020018360001916600019168152602001826000191660001916815260200194505050505060206040516020810390808403906000865af115156104df57600080fd5b50506020604051035190507fd331512a10b418a46d0d5bc7903311808f6fab9c0406535a057863e2568095da81604051808273ffffffffffffffffffffffffffffffffffffffff1673ffffffffffffffffffffffffffffffffffffffff16815260200191505060405180910390a18180600101925050610414565b5050505050505050565b60015481565b6000600185858585604051600081526020016040526040518085600019166000191681526020018460ff1660ff1681526020018360001916600019168152602001826000191660001916815260200194505050505060206040516020810390808403906000865af115156105dd57600080fd5b50506020604051035190509493505050505600a165627a7a72305820c85c80daa862c69b44ddb50f3e9bb49d6472904f60ab6cd0b4791cb461284a410029",
  "source": "pragma solidity ^0.4.0;\n\ncontract InterChainV2 {\n\n\tevent newTransactionSubmitted(uint256 txHash, address _to, uint256 _amount);\n\tevent addressRecovered(address recovered);\n\tevent hashedMessage(string message, bytes32 hashed, bytes32 msgHash);\n\n\taddress[] public authorities;\n\tuint256 public required;\n\tmapping(uint256 => Transaction) transactions;\n\n\tstruct Transaction {\n\t\taddress to;\n\t\tuint256 amount;\n\t\tbool executed;\n\t\tbool exists;\n\t}\n\n\tfunction InterChainV2(address[] _authorities, uint256 _required) public{\n\t\tauthorities = _authorities;\n\t\trequired = _required;\n\t}\n\n\n\t// here we will assume that the msgHash is sha3 of msg in the following format\n\t// concat toAddress + value\n\tfunction submitTransaction(bytes32 msgHash, string message, uint8[] v, bytes32[] r, bytes32[] s) public {\n\t\tbytes32 hashed = keccak256(message);\n\t\temit hashedMessage(message, hashed, msgHash);\n\n\t\tfor (uint8 i = 0; i < v.length; i++) {\n\t\t\taddress res = ecrecover(msgHash, v[i], r[i], s[i]);\n\t\t\temit addressRecovered(res);\n\t\t}\n\t}\n\n\tfunction recoverAddr(bytes32 msgHash, uint8 v, bytes32 r, bytes32 s) public returns (address) {\n\t\treturn ecrecover(msgHash, v, r, s);\n\t}\n}\n",
  "sourcePath": "/home/shine/Phpstorm/interchain-node/contracts/InterChainV2.sol",
  "compiler": {
    "name": "solc",
    "version": "0.4.21+commit.dfe3193c.Emscripten.clang"
  },
  "schemaVersion": "2.0.0",
  "updatedAt": "2018-04-05T00:35:32.124Z"
}