{
  "contractName": "InterChain",
  "abi": [
    {
      "constant": true,
      "inputs": [
        {
          "name": "",
          "type": "uint256"
        }
      ],
      "name": "authorities",
      "outputs": [
        {
          "name": "",
          "type": "address"
        }
      ],
      "payable": false,
      "stateMutability": "view",
      "type": "function"
    },
    {
      "constant": true,
      "inputs": [],
      "name": "required",
      "outputs": [
        {
          "name": "",
          "type": "uint256"
        }
      ],
      "payable": false,
      "stateMutability": "view",
      "type": "function"
    },
    {
      "inputs": [
        {
          "name": "_authorities",
          "type": "address[]"
        },
        {
          "name": "_required",
          "type": "uint256"
        }
      ],
      "payable": false,
      "stateMutability": "nonpayable",
      "type": "constructor"
    },
    {
      "anonymous": false,
      "inputs": [
        {
          "indexed": false,
          "name": "txHash",
          "type": "uint256"
        },
        {
          "indexed": false,
          "name": "_to",
          "type": "address"
        },
        {
          "indexed": false,
          "name": "_amount",
          "type": "uint256"
        }
      ],
      "name": "newTransactionSubmitted",
      "type": "event"
    },
    {
      "anonymous": false,
      "inputs": [
        {
          "indexed": false,
          "name": "txHash",
          "type": "uint256"
        },
        {
          "indexed": false,
          "name": "authority",
          "type": "address"
        }
      ],
      "name": "transactionApproved",
      "type": "event"
    },
    {
      "anonymous": false,
      "inputs": [
        {
          "indexed": false,
          "name": "txHash",
          "type": "uint256"
        }
      ],
      "name": "transactionExecuted",
      "type": "event"
    },
    {
      "constant": false,
      "inputs": [
        {
          "name": "txHash",
          "type": "uint256"
        },
        {
          "name": "_to",
          "type": "address"
        },
        {
          "name": "_amount",
          "type": "uint256"
        }
      ],
      "name": "submitTransaction",
      "outputs": [],
      "payable": false,
      "stateMutability": "nonpayable",
      "type": "function"
    }
  ],
  "bytecode": "0x6060604052341561000f57600080fd5b6040516109e43803806109e483398101604052808051820191906020018051906020019091905050816000908051906020019061004d92919061005c565b50806001819055505050610129565b8280548282559060005260206000209081019282156100d5579160200282015b828111156100d45782518260006101000a81548173ffffffffffffffffffffffffffffffffffffffff021916908373ffffffffffffffffffffffffffffffffffffffff1602179055509160200191906001019061007c565b5b5090506100e291906100e6565b5090565b61012691905b8082111561012257600081816101000a81549073ffffffffffffffffffffffffffffffffffffffff0219169055506001016100ec565b5090565b90565b6108ac806101386000396000f300606060405260043610610057576000357c0100000000000000000000000000000000000000000000000000000000900463ffffffff168063494503d41461005c578063b11e7aa4146100bf578063dc8452cd1461010a575b600080fd5b341561006757600080fd5b61007d6004808035906020019091905050610133565b604051808273ffffffffffffffffffffffffffffffffffffffff1673ffffffffffffffffffffffffffffffffffffffff16815260200191505060405180910390f35b34156100ca57600080fd5b610108600480803590602001909190803573ffffffffffffffffffffffffffffffffffffffff16906020019091908035906020019091905050610172565b005b341561011557600080fd5b61011d6106f8565b6040518082815260200191505060405180910390f35b60008181548110151561014257fe5b90600052602060002090016000915054906101000a900473ffffffffffffffffffffffffffffffffffffffff1681565b61017a6106fe565b6002600085815260200190815260200160002060020160019054906101000a900460ff1615156104f0576002600085815260200190815260200160002060a060405190810160405290816000820160009054906101000a900473ffffffffffffffffffffffffffffffffffffffff1673ffffffffffffffffffffffffffffffffffffffff1673ffffffffffffffffffffffffffffffffffffffff168152602001600182015481526020016002820160009054906101000a900460ff161515151581526020016002820160019054906101000a900460ff16151515158152602001600382018054806020026020016040519081016040528092919081815260200182805480156102de57602002820191906000526020600020905b8160009054906101000a900473ffffffffffffffffffffffffffffffffffffffff1673ffffffffffffffffffffffffffffffffffffffff1681526020019060010190808311610294575b5050505050815250509050600181606001901515908115158152505082816000019073ffffffffffffffffffffffffffffffffffffffff16908173ffffffffffffffffffffffffffffffffffffffff168152505081816020018181525050806002600086815260200190815260200160002060008201518160000160006101000a81548173ffffffffffffffffffffffffffffffffffffffff021916908373ffffffffffffffffffffffffffffffffffffffff1602179055506020820151816001015560408201518160020160006101000a81548160ff02191690831515021790555060608201518160020160016101000a81548160ff02191690831515021790555060808201518160030190805190602001906103fd92919061074e565b5090505060026000858152602001908152602001600020600301805480600101828161042991906107d8565b9160005260206000209001600033909190916101000a81548173ffffffffffffffffffffffffffffffffffffffff021916908373ffffffffffffffffffffffffffffffffffffffff160217905550507f52c3e989e54aec6d50f20e41076214e5db6da068159cc4546a6b6ef0a46919f5848484604051808481526020018373ffffffffffffffffffffffffffffffffffffffff1673ffffffffffffffffffffffffffffffffffffffff168152602001828152602001935050505060405180910390a16106f2565b8273ffffffffffffffffffffffffffffffffffffffff166002600086815260200190815260200160002060000160009054906101000a900473ffffffffffffffffffffffffffffffffffffffff1673ffffffffffffffffffffffffffffffffffffffff1614151561056057600080fd5b81600260008681526020019081526020016000206001015414151561058457600080fd5b6002600085815260200190815260200160002060030180548060010182816105ac91906107d8565b9160005260206000209001600033909190916101000a81548173ffffffffffffffffffffffffffffffffffffffff021916908373ffffffffffffffffffffffffffffffffffffffff160217905550507f839066979ee125dda4ceeeec18009bf06e6cbbcb4005a226433c122b1bed76878433604051808381526020018273ffffffffffffffffffffffffffffffffffffffff1673ffffffffffffffffffffffffffffffffffffffff1681526020019250505060405180910390a160015460026000868152602001908152602001600020600301805490501015156106f15760016002600086815260200190815260200160002060020160006101000a81548160ff0219169083151502179055507fbdc798ca9d696d603c31a625ad352018d031588c2b3c897f60924a8b9051a9b3846040518082815260200191505060405180910390a15b5b50505050565b60015481565b60a060405190810160405280600073ffffffffffffffffffffffffffffffffffffffff16815260200160008152602001600015158152602001600015158152602001610748610804565b81525090565b8280548282559060005260206000209081019282156107c7579160200282015b828111156107c65782518260006101000a81548173ffffffffffffffffffffffffffffffffffffffff021916908373ffffffffffffffffffffffffffffffffffffffff1602179055509160200191906001019061076e565b5b5090506107d49190610818565b5090565b8154818355818115116107ff578183600052602060002091820191016107fe919061085b565b5b505050565b602060405190810160405280600081525090565b61085891905b8082111561085457600081816101000a81549073ffffffffffffffffffffffffffffffffffffffff02191690555060010161081e565b5090565b90565b61087d91905b80821115610879576000816000905550600101610861565b5090565b905600a165627a7a723058206bd193b9bf5fec9404446f132290e06d809d45c2ff0649d202a8308919cbce5a0029",
  "source": "pragma solidity ^0.4.21;\n\ncontract InterChain {\n\n\tevent newTransactionSubmitted(uint256 txHash, address _to, uint256 _amount);\n\tevent transactionApproved(uint256 txHash, address authority);\n\tevent transactionExecuted(uint256 txHash);\n\n\taddress[] public authorities;\n\tuint256 public required;\n\tmapping(uint256 => Transaction) transactions;\n\n\tstruct Transaction {\n\t\taddress to;\n\t\tuint256 amount;\n\t\tbool executed;\n\t\tbool exists;\n\t\taddress[] confirmed;\n\t}\n\n\tfunction InterChain(address[] _authorities, uint256 _required) public{\n\t\tauthorities = _authorities;\n\t\trequired = _required;\n\t}\n\n\tfunction submitTransaction(uint256 txHash, address _to, uint256 _amount) public {\n\t\tif(!transactions[txHash].exists) {\n\t\t\tTransaction memory transaction = transactions[txHash];\n\t\t\ttransaction.exists = true;\n\t\t\ttransaction.to = _to;\n\t\t\ttransaction.amount = _amount;\n\t\t\ttransactions[txHash] = transaction;\n\t\t\ttransactions[txHash].confirmed.push(msg.sender);\n\t\t\temit newTransactionSubmitted(txHash, _to, _amount);\n\t\t} else {\n\t\t\trequire(transactions[txHash].to == _to);\n\t\t\trequire(transactions[txHash].amount == _amount);\n\n\t\t\ttransactions[txHash].confirmed.push(msg.sender);\n\t\t\temit transactionApproved(txHash, msg.sender);\n\n\t\t\tif (transactions[txHash].confirmed.length >= required) {\n\t\t\ttransactions[txHash].executed = true;\n\t\t\temit transactionExecuted(txHash);\n\t\t\t}\n\t\t}\n\t}\n\n}\n",
  "sourcePath": "/home/shine/Phpstorm/interchain-node/contracts/InterChain.sol",
  "compiler": {
    "name": "solc",
    "version": "0.4.21+commit.dfe3193c.Emscripten.clang"
  },
  "schemaVersion": "2.0.0",
  "updatedAt": "2018-04-05T00:32:47.388Z"
}